:020000040800F2
:1000000000000220B5550008F9540008FB54000810
:10001000FD540008FF5400080155000800000000CE
:100020000000000000000000000000000355000870
:100030000555000800000000075500080955000894
:100040000556000805560008055600080556000824
:100050000556000805560008055600080556000814
:100060000556000805560008055600080556000804
:1000700005560008055600080556000805560008F4
:1000800005560008055600080556000805560008E4
:1000900005560008055600080556000805560008D4
:1000A00005560008055600080556000805560008C4
:1000B00005560008055600080556000805560008B4
:1000C00005560008055600080556000805560008A4
:1000D0000556000805560008055600080556000894
:1000E0000556000805560008055600080556000884
:1000F0000556000805560008055600080556000874
:100100000556000805560008055600080556000863
:100110000556000805560008055600080556000853
:100120000556000805560008055600080556000843
:1001300005560008000000000000000005560008F9
:100140000556000805560008055600080556000823
:100150000556000805560008055600080556000813
:100160000556000805560008055600080556000803
:1001700005560008055600080000000000000000B9
:080180000556000805560008B1
:1001900010B5054C237833B9044B13B10448AFF3C1
:1001A00000800123237010BDB0000020000000007B
:1001B000408D000808B5034B1BB103490348AFF35A
:1001C000008008BD00000000B4000020408D000841
:1001D00047F63003038002230A0F090130323A2A1E
:1001E00000D30732C25201330A2BF5D170470029E0
:1001F00009DA00B52D2202700130C1F1000100F0D2
:1002000002F8013000BD30B54FF0000505604560D3
:1002100085600E4BA3FB0143DC0822000A2304FB8C
:1002200003F40C1B44F030044453013511460029FB
:10023000EFD120B4013D445D425C4255445401314C
:10024000013D8D4200D0F6DC31BD0000CDCCCCCCE0
:10025000034613F8012B002AFBD1181A0138704706
:1002600001F0FF01102A2BDB10F0070F08D010F867
:10027000013B013A8B422DD010F0070F42B3F6D16B
:10028000F0B441EA012141EA014122F007047FF084
:1002900000070023F0E80256083C85EA010586EADB
:1002A000010685FA47F5A3FA87F586FA47F6A5FA17
:1002B00087F68EB9EED1F0BC01F0FF0102F0070223
:1002C00032B110F8013B013A83EA010313B1F8D1CE
:1002D0000020704701387047002D06BF35460338AF
:1002E000073815F0010F07D1013015F4807F02BFE8
:1002F000013015F4C03F0130F0BC0138704700BF39
:1003000081F0004102E000BF83F0004330B54FEAC6
:1003100041044FEA430594EA050F08BF90EA020F33
:100320001FBF54EA000C55EA020C7FEA645C7FEAC6
:10033000655C00F0E2804FEA5454D4EB5555B8BFE9
:100340006D420CDD2C4480EA020281EA030382EA5A
:10035000000083EA010180EA020281EA0303362DEC
:1003600088BF30BD11F0004F4FEA01314FF4801CBF
:100370004CEA113102D0404261EB410113F0004FD1
:100380004FEA03334CEA133302D0524263EB430388
:1003900094EA050F00F0A780A4F10104D5F1200E26
:1003A0000DDB02FA0EFC22FA05F2801841F1000181
:1003B00003FA0EF2801843FA05F359410EE0A5F155
:1003C00020050EF1200E012A03FA0EFC28BF4CF086
:1003D000020C43FA05F3C01851EBE37101F000453C
:1003E00007D54FF0000EDCF1000C7EEB00006EEB49
:1003F0000101B1F5801F1BD3B1F5001F0CD34908D3
:100400005FEA30004FEA3C0C04F101044FEA445229
:1004100012F5800F80F09A80BCF1004F08BF5FEAB0
:10042000500C50F1000041EB045141EA050130BD90
:100430005FEA4C0C404141EB0101013C28BFB1F5A2
:10044000801FE9D291F0000F04BF01460020B1FAED
:1004500081F308BF2033A3F10B03B3F120020CDAC0
:100460000C3208DD02F1140CC2F10C0201FA0CF09E
:1004700021FA02F10CE002F11402D8BFC2F1200C03
:1004800001FA02F120FA0CFCDCBF41EA0C019040B9
:10049000E41AA2BF01EB0451294330BD6FEA040402
:1004A0001F3C1CDA0C340EDC04F11404C4F12002ED
:1004B00020FA04F001FA02F340EA030021FA04F3FF
:1004C00045EA030130BDC4F10C04C4F1200220FA56
:1004D00002F001FA04F340EA0300294630BD21FA94
:1004E00004F0294630BD94F0000F83F4801306BF5A
:1004F00081F480110134013D4EE77FEA645C18BF4E
:100500007FEA655C29D094EA050F08BF90EA020FE4
:1005100005D054EA000C04BF1946104630BD91EADC
:10052000030F1EBF0021002030BD5FEA545C05D1DF
:100530004000494128BF41F0004130BD14F580041E
:100540003CBF01F5801130BD01F0004545F0FE4192
:1005500041F470014FF0000030BD7FEA645C1ABFC7
:10056000194610467FEA655C1CBF0B46024650EAFE
:10057000013406BF52EA033591EA030F41F400212A
:1005800030BD00BF90F0000F04BF0021704730B5B0
:100590004FF4806404F132044FF000054FF0000185
:1005A00050E700BF90F0000F04BF0021704730B546
:1005B0004FF4806404F1320410F0004548BF40421B
:1005C0004FF000013EE700BF42004FEAE2014FEA70
:1005D00031014FEA02701FBF12F07F4393F07F4F4B
:1005E00081F06051704732F07F4208BF704793F04E
:1005F0007F4F04BF41F40021704730B54FF4607461
:1006000001F0004521F000411CE700BF50EA010263
:1006100008BF704730B54FF000050AE050EA01020C
:1006200008BF704730B511F0004502D5404261EB7C
:1006300041014FF4806404F132045FEA915C3FF4BD
:10064000D8AE4FF003025FEADC0C18BF03325FEA5A
:10065000DC0C18BF033202EBDC02C2F1200300FA0B
:1006600003FC20FA02F001FA03FE40EA0E0021FA30
:1006700002F11444BDE600BF70B54FF0FF0C4CF41E
:10068000E06C1CEA11541DBF1CEA135594EA0C0FD0
:1006900095EA0C0F00F0DEF82C4481EA030621EA0B
:1006A0004C5123EA4C5350EA013518BF52EA033546
:1006B00041F4801143F4801338D0A0FB02CE4FF0F8
:1006C0000005E1FB02E506F00042E0FB03E54FF028
:1006D0000006E1FB03569CF0000F18BF4EF0010E20
:1006E000A4F1FF04B6F5007F64F5407404D25FEA1C
:1006F0004E0E6D4146EB060642EAC62141EA5551CF
:100700004FEAC52040EA5E504FEACE2EB4F1FD0C10
:1007100088BFBCF5E06F1ED8BEF1004F08BF5FEA8E
:10072000500E50F1000041EB045170BD06F0004640
:1007300046EA010140EA020081EA0301B4EB5C04ED
:10074000C2BFD4EB0C0541EA045170BD41F48011E5
:100750004FF0000E013C00F3AB8014F1360FDEBF0A
:10076000002001F0004170BDC4F10004203C35DAE6
:100770000C341BDC04F11404C4F1200500FA05F369
:1007800020FA04F001FA05F240EA020001F000420A
:1007900021F0004110EBD37021FA04F642EB060180
:1007A0005EEA430E08BF20EAD37070BDC4F10C04AA
:1007B000C4F1200500FA04F320FA05F001FA04F26E
:1007C00040EA020001F0004110EBD37041F100015A
:1007D0005EEA430E08BF20EAD37070BDC4F1200565
:1007E00000FA05F24EEA020E20FA04F301FA05F2CD
:1007F00043EA020321FA04F001F0004121FA04F275
:1008000020EA020000EBD3705EEA430E08BF20EA44
:10081000D37070BD94F0000F0FD101F0004640007E
:1008200041EB010111F4801F08BF013CF7D041EA00
:10083000060195F0000F18BF704703F00046520004
:1008400043EB030313F4801F08BF013DF7D043EAD5
:100850000603704794EA0C0F0CEA135518BF95EA8B
:100860000C0F0CD050EA410618BF52EA4306D1D112
:1008700081EA030101F000414FF0000070BD50EA31
:10088000410606BF1046194652EA430619D094EABB
:100890000C0F02D150EA013613D195EA0C0F05D1A5
:1008A00052EA03361CBF104619460AD181EA0301F9
:1008B00001F0004141F0FE4141F470014FF00000B1
:1008C00070BD41F0FE4141F4780170BD70B54FF04C
:1008D000FF0C4CF4E06C1CEA11541DBF1CEA1355CC
:1008E00094EA0C0F95EA0C0F00F0A7F8A4EB0504AE
:1008F00081EA030E52EA03354FEA013100F08880A5
:100900004FEA03334FF0805545EA131343EA12636D
:100910004FEA022245EA111545EA10654FEA002622
:100920000EF000419D4208BF964244F1FD0404F5DB
:10093000407402D25B084FEA3202B61A65EB030537
:100940005B084FEA32024FF480104FF4002CB6EBF4
:10095000020E75EB030E22BFB61A754640EA0C0074
:100960005B084FEA3202B6EB020E75EB030E22BFB4
:10097000B61A754640EA5C005B084FEA3202B6EBF5
:10098000020E75EB030E22BFB61A754640EA9C00B4
:100990005B084FEA3202B6EB020E75EB030E22BF84
:1009A000B61A754640EADC0055EA060E18D04FEA42
:1009B000051545EA16754FEA06164FEAC30343EAE2
:1009C00052734FEAC2025FEA1C1CC0D111F4801FAF
:1009D0000BD141EA00014FF000004FF0004CB6E7A8
:1009E00011F4801F04BF01430020B4F1FD0C88BF47
:1009F000BCF5E06F3FF6AFAEB5EB030C04BFB6EB52
:100A0000020C5FEA500C50F1000041EB045170BD44
:100A10000EF0004E4EEA113114EB5C04C2BFD4EB71
:100A20000C0541EA045170BD41F480114FF0000EF5
:100A3000013C90E645EA060E8DE60CEA135594EA71
:100A40000C0F08BF95EA0C0F3FF43BAF94EA0C0F74
:100A50000AD150EA01347FF434AF95EA0C0F7FF4E9
:100A600025AF104619462CE795EA0C0F06D152EA3D
:100A700003353FF4FDAE1046194622E750EA410621
:100A800018BF52EA43067FF4C5AE50EA41047FF432
:100A90000DAF52EA43057FF4EBAE12E74FF0FF3C97
:100AA00006E000BF4FF0010C02E000BF4FF0010C68
:100AB0004DF804CD4FEA410C7FEA6C5C4FEA430CE1
:100AC00018BF7FEA6C5C1BD001B050EA410C0CBF30
:100AD00052EA430C91EA030F02BF90EA020F002092
:100AE000704710F1000F91EA030F58BF994208BFF9
:100AF00090422CBFD8176FEAE37040F001007047B6
:100B00004FEA410C7FEA6C5C02D150EA013C07D10C
:100B10004FEA430C7FEA6C5CD6D152EA033CD3D057
:100B20005DF8040B704700BF8446104662468C4651
:100B30001946634600E000BF01B5FFF7B7FF002884
:100B400048BF10F1000F01BD4DF808EDFFF7F4FFAD
:100B50000CBF012000205DF808FB00BF4DF808ED38
:100B6000FFF7EAFF34BF012000205DF808FB00BF5B
:100B70004DF808EDFFF7E0FF94BF012000205DF87D
:100B800008FB00BF4DF808EDFFF7CEFF94BF012032
:100B900000205DF808FB00BF4DF808EDFFF7C4FF2B
:100BA00034BF012000205DF808FB00BF4FEA410C74
:100BB0007FEA6C5C02D150EA013C0AD14FEA430C57
:100BC0007FEA6C5C02D152EA033C02D14FF0000094
:100BD00070474FF0010070474FEA410212F50012D2
:100BE00015D211D56FF47873B3EB625212D94FEA74
:100BF000C12343F0004343EA505311F0004F23FA5E
:100C000002F018BF404270474FF00000704750EAB2
:100C1000013005D111F0004008BF6FF0004070476F
:100C20004FF00000704700BF4FEA4102B2F1E043CD
:100C300024BFB3F5001CDCF1FE5C0DD901F0004CC3
:100C40004FEAC0024CEA5070B2F1004F40EB830013
:100C500008BF20F00100704711F0804F21D113F13F
:100C60003872BCBF01F00040704741F480114FEA78
:100C70005252C2F11802C2F1200C10FA0CF320FA01
:100C800002F018BF40F001004FEAC1234FEAD3231E
:100C900003FA0CFC40EA0C0023FA02F34FEA430388
:100CA000CCE77FEA625307D150EA01331EBF4FF011
:100CB000FE4040F44000704701F0004040F0FE402C
:100CC00040F40000704700BF53B94AB9002908BF7B
:100CD00000281CBF4FF0FF314FF0FF3000F088B903
:100CE000ADF1080C6DE904CE00F006F8DDF804E083
:100CF000DDE9022304B070472DE9F047089D8E46D8
:100D000004468846002B4AD18A42174662D9B2FA75
:100D100082F64EB1C6F1200301FA06F820FA03F379
:100D2000B74043EA0808B4404FEA174E1FFA87FC61
:100D3000B8FBFEF1230C0EFB118843EA084301FBCC
:100D40000CF29A4209D9FB1801F1FF3080F0EA80D9
:100D50009A4240F2E78002393B449A1AA3B2B2FBAE
:100D6000FEF00EFB102243EA024300FB0CFC9C4504
:100D700009D9FB1800F1FF3280F0D6809C4540F283
:100D8000D3803B44023840EA0140A3EB0C0300212E
:100D90001DB1F3400022C5E90032BDE8F0878B4267
:100DA00005D90DB1C5E9000100210846F5E7B3FA00
:100DB00083F1002946D1734502D3824200F20581B6
:100DC000841A6EEB030201209046002DE5D0C5E9A0
:100DD0000048E2E7002A00F09080B2FA82F6002E86
:100DE00040F0A4808A1A030C4FEA174E80B2BCB2BE
:100DF0000121B2FBFEFC0EFB1C2243EA024304FB72
:100E00000CF29A4207D9FB180CF1FF3802D29A4231
:100E100000F2E080C4469B1AB3FBFEF20EFB1233D5
:100E200040EA034302FB04F49C4207D9FB1802F199
:100E3000FF3002D29C4200F2CA8002461B1B42EAEB
:100E40000C40A5E7C1F120068B4022FA06F71F43AC
:100E50000EFA01F420FA06F32EFA06FE4FEA1749BD
:100E6000234300FA01F81FFA87FCBEFBF9F01C0CC3
:100E700009FB10EE44EA0E4400FB0CFEA64502FA04
:100E800001F209D93C1900F1FF3A80F09C80A64597
:100E900040F2998002383C44A4EB0E041FFA83FE12
:100EA000B4FBF9F309FB13444EEA044403FB0CFCC6
:100EB000A44508D93C1903F1FF3E80F08280A44587
:100EC0007FD9023B3C4443EA0040A4EB0C04A0FB66
:100ED00002EC64457346E14662D35FD05DB1B8EB86
:100EE000030264EB090404FA06F622FA01F31E4336
:100EF000CC40C5E9006400214FE7B1FBF2FC010CD6
:100F000041EA0E4180B240EA01423B4638463C4647
:100F1000B846BE462026B1FBF7F1A2EB080241EA33
:100F20000C4166E7014618E710462CE7C6F120029F
:100F30002EFA02F3B740B14020FA02F24FEA174E00
:100F40000A43B3FBFEF8BCB20EFB1833110C41EAA6
:100F5000034108FB04F9B04089454FEA104380B2D1
:100F60003ED9791808F1FF3C01D289451FD8A1EB81
:100F70000901B1FBFEF909FB04F80EFB191192B24D
:100F800042EA0142424529D2BA1809F1FF31C4D2DE
:100F90004245C2D2A9F102013A44BEE7F0459DD2D2
:100FA000BEEB02036CEB070C0138E14696E7A7EBBA
:100FB00009094944A8F1020CB1FBFEF909FB04F848
:100FC000DBE773467FE7504666E70846FDE63B44AD
:100FD000023A33E7ACF1020C3B441CE749469CE77C
:100FE000A1EB0901C446B1FBFEF909FB04F8C4E713
:100FF000704700BFD0E901329342BFBF0268591C5D
:101000004160D05CA8BF0020704710B552EA0304CD
:101010000CD48C68944209DBA41A9C4206DB096854
:101020000A4402600022C0E9012310BD00221346D9
:10103000F7E7006800BA704703460078312809D105
:101040005A78002A2DD19A785ABBD878B0FA80F015
:101050004009704774280BD15A78792A17D19A78A9
:10106000702A1ED1D878312814BF00200120704783
:101070004F2814D15A78542A13D19A78542A10D16F
:10108000D8784F28F0E75A78012ADCD07047722AC6
:1010900007D19A78752A04D1D8786528E4E7002822
:1010A000F1D00020704730B40B1DC518C45C6B78BC
:1010B00003EB042308449BB20021994202DB002089
:1010C00030BC7047057B1478A5420FD1457B54781E
:1010D000A5420BD1857B9478A54207D1C57BD478F6
:1010E000A54203D130BC1430FFF7A3BF013110304B
:1010F000E3E72DE9F0470E254D4306464419DDE9A7
:101100000AA9DDE90C8EBDF920C0BDF92470481C88
:10111000EBB17AB10323237308EB0A035B1023803E
:101120000EEB09035B106380A4F80480A4F806E0CA
:101130000E350146731903221A73481C26F805C0A0
:101140005F80A3F804A0A3F80690BDE8F0874AB139
:1011500003232373A4F800C06780A4F80480A4F8D4
:1011600006E0F2E702232373A4F800C06780A280A0
:10117000E280EAE7C3698B4201DB436803B9C161DE
:10118000436A934201DB436803B9426283698B423D
:1011900001DC436803B98161036A934201DC43685F
:1011A00003B902620123436070472DE9F8430D46FD
:1011B00011461A460368DDE90898DDE90A76044617
:1011C00083B1FFF7D7FF042D07D142464946FFF709
:1011D000D1FF32463946FFF7CDFFE36A0133E362C0
:1011E000BDE8F883C36AD4F828C00E2043430CEB53
:1011F000030005732CF803104280A0F80490A0F8B7
:10120000068007814681E8E7D0ED027AD0ED046AD6
:1012100090ED037AF4EE667AF1EE10FA1FB506D17E
:10122000D0ED056AF4EE476AF1EE10FA0FD0BDEE8C
:10123000C77AFDEEE77A0023CDE90233CDE900332A
:1012400017EE902A17EE103A0221FFF7AEFF05B015
:101250005DF804FB1FB50446FFF7D6FFD4ED047A12
:1012600030EE270AD4ED057A84ED040A70EEA70A61
:101270000023FDEEE07A84ED020AC4ED050AC4ED18
:10128000030ACDE90233CDE9003317EE903AFDEEC3
:10129000C07A012117EE902A2046FFF786FF04B09E
:1012A00010BDD0ED047A30EE270AD0ED057A1FB5D7
:1012B00070EEA70A0023FDEEE07ACDE90233CDE916
:1012C000003317EE903AFDEEC07A80ED040A17EE77
:1012D000902AC0ED050A0221FFF767FF05B05DF80F
:1012E00004FBD0ED047A30EE270AD0ED057A70EEDB
:1012F000A70A30EE011A70EEA11A1FB571EEA22AEC
:1013000031EE022AFDEEE27AFDEEE11A17EE903A96
:10131000BDEEC11AFDEEE00ABDEEC00AFDEEC27AD6
:1013200080ED042A17EE902AC0ED052ACDED031AB0
:101330008DED021ACDED010A8DED000A0421FFF7B3
:1013400034FF05B05DF804FBF0B50278437803EB99
:1013500002239BB2012B04D0022B1BD04FF0FF3095
:10136000F0BD8278C37803EB02239BB28B421BDC77
:101370000479427902EB042213FA82F28A4213DDE5
:10138000CB1A5B000633C218C35C507800EB032015
:1013900080B2E5E78278C37803EB02239BB2013B7E
:1013A000002706269F4201DD0020D9E7FC186410C3
:1013B00006FB04F50435421910F805C0557805EB15
:1013C0000C25ADB2A94201DA631EEBE79778D57818
:1013D00005EB0725ADB2A94201DD671CE2E71379F1
:1013E0005079D3E72DE9F04F044689B00D464FF010
:1013F00014090C2D02DC09B0BDE8F08F6E1009FB5A
:10140000054309FB064653ED047AD6ED016A94EDD7
:10141000017AF4EEE76AF1EE10FAB4EEE67A4CBF28
:1014200001230023F1EE10FA4CBF012200229A4260
:1014300005F1FF372AD0B4EEE77AF1EE10FA4CBF8F
:10144000012200229A4214BFBC464FF0000C09FB57
:101450000C4CE046B8E80F000DF10C0EAEE80F00A2
:10146000D8F800A0CEF800A0B646BEE80F00ACE861
:101470000F00DEF80030C8F800300DF10C08B8E8B5
:101480000F00B446ACE80F00CEF800A0A646BEE8B8
:101490000F000DF10C0CACE80F00DEF80080CCF86A
:1014A0000080B446BCE80F00A246AAE80F00DCF8B2
:1014B0000030CEF800300DF10C0EBEE80F004FF0FA
:1014C000020B0FC6CCF800802346D4ED017A93EDD1
:1014D000067AB4EEE77AF1EE10FA03F1140C30D488
:1014E00009FB074696ED017AF4EEC77AF1EE10FAA1
:1014F000A6F1140302D5013F1E46F3E70BF1FF33BB
:10150000BB4222DAE046B8E80F000DF10C0EAEE85F
:101510000F00D8F80030CEF80030B6460193BEE890
:101520000F00E246AAE80F00DEF80030C8F80030ED
:101530000DF10C08B8E80F000FC6019BCEF8003083
:10154000013F0BF1010B6346BFE7ED1ABD42664652
:1015500005DD39462046FFF745FF344649E7294671
:101560006046FFF73FFF3D462646F6E738B5036C79
:1015700033B11C4B1C4A1D4840F2476105F0F8FF8F
:10158000C3688B422BDD436B012B28DC82694468E6
:101590000069C3B900EB41016318605C5B780231FC
:1015A000651803EB0023605C697801EB00219BB2B6
:1015B00089B202EB430302EB4102934208BF4FF0B2
:1015C000FF33184638BD00EB81016018FFF731FD8D
:1015D000043113186018FFF72CFD0244EDE74FF0BB
:1015E000FF33EEE7588D0008E2900008688D000890
:1015F000F5EEC00AF1EE10FA08B506DA0C4B0D4A0A
:1016000040F6FB310C4805F0B3FFB5EEC01AF1EE21
:1016100010FA04DA094B074A40F6FC31F2E770EEA3
:10162000810AF6EE007A60EEA70A20EE800A08BD75
:101630007F8D00084B900008688D00088E8D000893
:101640002DE9704304462DED108B0E46B0EE40AAF6
:10165000F0EE60AAF0EE418AB0EE618AF0EE429AB6
:10166000B0EE629AF0EE43BAB0EE63BAF0EE44CA5E
:10167000154678EE6A7A38EECA7A67EEA77A79EE7E
:1016800048DAE7EE077A39EEE8FA17EE900AFEF745
:101690009BFF41EC100B07F059F96DEEAD7A59EC58
:1016A000108BEFEE0F7A3BEE49DA17EE900AFEF759
:1016B0008BFF41EC100B07F049F9404653EC102B1F
:1016C0004946FEF723FE7BEEE9EA6DEE0D7A804691
:1016D000EEEEAE7A89463BEE6ACA17EE900AFEF746
:1016E00073FF41EC100B07F031F9404653EC102B1F
:1016F0004946FEF70BFEFFF797FA3BEECAEA6CEE9F
:101700000C7A0DEE100AEEEE0E7A17EE900AFEF746
:101710005BFF41EC100B07F019F951EC100BFFF7D0
:1017200083FA07EE900A67EEE77A112DEDEE0D7A57
:1017300059D0F4EEEC7AF1EE10FA4ADD38EE8A1A5E
:1017400078EEA98A79EEAB9AF6EE007A69EEA79A5E
:1017500078EE2A1AB0EE697A38EE098AA8EEA77AEE
:1017600001352A4639EE0B9A21EE271A61EEA71AA7
:1017700029EE279AB0EE412AA8EEA72A3146204644
:1017800067EE278AF0EE612AB0EE497AE8EE272A62
:10179000A8EE277A22EE272A62EEA72A27EE278ACA
:1017A00032EE28CA32EE88DA2CEE27CA2DEE27DA7E
:1017B000F0EE6A0AB0EE4A0AB0EE6C4AF0EE4D3A2C
:1017C000B0EE4C3AFFF73CFFF0EE4DAAB0EE4CAA5B
:1017D0004FE733682CB104EBC304C4ED00BA84EDC9
:1017E00001BA01333360BDEC108BBDE8708300009B
:1017F00008B583688B4201DB002906DA044B054AF1
:10180000054840F27D4105F0B3FE416008BD00BFD0
:10181000A08D00082A910008688D000843681944CB
:10182000FFF7E6BFF8B54B1E032B07460E4606D959
:10183000094B0A4A0A4840F28A4105F099FE002500
:10184000284604023846FFF7D5FB0135AE4240EA90
:101850000400F6D1F8BD00BFB88D0008069100085D
:10186000688D00082DE9FF4101AD85E80E000746AF
:10187000002128460A9EFFF7BBFF02212846FFF7FA
:10188000D1FF80462846FFF7B5FB002E044601DB5A
:10189000B04506DC144B154A40F2F241144805F0FD
:1018A00067FE431E032B04D9124B104A40F2F3414A
:1018B000F4E706FB00F12846FFF7B0FF2146284673
:1018C000FFF7B0FF214606462846FFF7ABFF08FBAF
:1018D00004440234831BA21938462946FFF795FBBE
:1018E00004B0BDE8F08100BFC98D00083A9100083E
:1018F000688D0008DD8D00082DE9F0410C46D1F817
:101900000480074602212046FFF78CFF0646D0B12F
:101910002046FFF76FFB431E032B054606D90F4BEE
:101920000F4A104840F2AD4105F022FE00FB06F1DF
:101930002046FFF773FF29462046FFF773FF411E3D
:101940002046FFF76BFF63683846A3EB0803424667
:101950002146FFF75AFBBDE8F08100BFDD8D00088E
:1019600015910008688D000870B50546FFF742FB29
:10197000A0F12003D62B044601D88B3870BDA0F10E
:10198000F706032E06D82846FFF734FB00EB0620A7
:101990006C30F3E7A0F1FB03032B08D82846FFF7D0
:1019A00029FBC4F1FB04C0EB04206C38E6E71C28DB
:1019B00005D102212846BDE87040FFF733BF1D283E
:1019C00001D10421F6E7034B034A044840F2BC412D
:1019D00005F0CEFD9E8D0008F7900008688D000888
:1019E000F4EE610AF1EE10FA08B500F0B780F4EEFB
:1019F000E10AF1EE10FA06D47E4B7F4A40F6D73169
:101A00007E4805F0B5FD92ED057AD2ED067AB4EE8A
:101A1000E77AF1EE10FA04D9794B774A40F6D831DB
:101A2000EEE7F4EEE70AF1EE10FA00F39780F4EE39
:101A3000C71AF1EE10FA00F19180F4EEC70AF1EE48
:101A400010FA0DD537EE606A71EE406A71EEE00A69
:101A500066EE866A86EEA06AF0EE470A30EE060A67
:101A6000F4EEE71AF1EE10FA0DDD77EEE16A31EEF1
:101A7000407A71EEE01A27EE267AC7EE216AF0EE80
:101A8000671A31EE261A07EE901AF8EEE77A4B1C29
:101A900007EE103AB4EE670AF1EE10FAB8EEC77A24
:101AA00009D1B4EEC17AF1EE10FA46DA554B524A3A
:101AB00040F6E531A4E7B4EE407AF1EE10FA0AD12F
:101AC000F4EEC17AF1EE10FA40F287804E4B4A4AAA
:101AD00040F6E73194E7B4EEE70AF1EE10FA09D8E0
:101AE000F4EEC17AF1EE10FA2CDA484B424A40F695
:101AF000E93185E7B4EEC07AF1EE10FA09D8B4EE18
:101B0000C17AF1EE10FA6ED9414B3B4A40F6EB3107
:101B100076E7F4EEC17AF1EE10FA04D8B4EEC17AA9
:101B2000F1EE10FA04DA3B4B334A40F6ED3167E749
:101B3000B4EEE70AF1EE10FA11D8F4EEC17AF1EE44
:101B400010FA0CDB00EB810071EEE01A92ED047AE2
:101B5000D0ED007AE7EE217AC0ED007A08BDB4EE50
:101B6000C07AF1EE10FA04D8B4EEC17AF1EE10FAB0
:101B7000F4D9B4EEE70AF1EE10FA0EDBB4EEC07A57
:101B8000F1EE10FA09DBF4EEC17AF1EE10FA04D8A6
:101B9000B4EEC17AF1EE10FA04DA1F4B164A40F6A1
:101BA000F4312DE730EE670A31EE671AD2ED046AA0
:101BB00071EEE01A30EE010A61EEA61AF6EE007A36
:101BC000F7EE006AE0EE676A00EB810090ED007AC4
:101BD000F0EE477AE1EEA67ABEE7B4EEE70AF1EE60
:101BE00010FAC1D8A9E7B4EEE70AF1EE10FAB5D8B9
:101BF000A3E700BFFA8D000830900008688D000848
:101C0000028E00084E8E0008118E0008198E000802
:101C1000218E0008438E00082B8E00082DE9F04F1E
:101C20002DED108BD0F80080ADF5077D0DEE103A4C
:101C3000B8F1400F4FF0000307460E4614460493D8
:101C400039DD4FEAC800043005F0B0FC054605EB6D
:101C500088030293142303FB0464A09A7B689FED1E
:101C6000B0EADFEDB0EAD31807EE903AF8EEE77A83
:101C7000F7EE00CA77EEAC7A4FF00008C4ED017AB7
:101C8000CDF80480C146C246A09B534408EE903A6A
:101C90007B689A4511DBB9F1000F40F0418305AB39
:101CA0009D4202D0284605F089FC0DF5077DBDEC6C
:101CB000108BBDE8F08F05ADC9E797ED00CA1CEEAB
:101CC000103A9C0022460021F8EEE88A284605F0EA
:101CD00069FF221D0298002105F064FF38EEAC9ADE
:101CE00004AA144613681BBBBFEE00AAF7EE00AAB5
:101CF00096ED018AB4EEC89AF1EE10FA37DA24684C
:101D0000002C40F0A8800299DFED856A9FED866A7D
:101D10002C460022F6EE005A3B689A42C0F2DB8263
:101D200004AB1B68002B40F0F2820AF1010AABE71A
:101D3000D3ED067A1968F4EEE78AF1EE10FA14DBB7
:101D4000D3ED047A1160F5EE407AF1EE10FA06D187
:101D5000764B774A40F60351764805F009FC019925
:101D600083ED04EA19600193BCE71A46BAE7D6EDA1
:101D7000039AF4EE489AF1EE10FA60D0019B93B109
:101D800018461B680193D6ED007AD6ED026A39EE4B
:101D9000C86A76EEE76A86EE867AC8B9664B674A05
:101DA00040F62D31D8E7B8F1000F0AD14DF6C42026
:101DB00005F0FCFB0028E6D0C0F800904FF4FA686C
:101DC000814608F1FF381C2000FB08900430DAE758
:101DD000B5EE407AF1EE10FA18BFCCEE876A33699F
:101DE00008BFF0EE4E6AC0ED036A78EEC86A80ED77
:101DF000027AE7EE267A002B4FF00003B8EECD7A98
:101E000080ED058A77EEC77AC0ED069AC0ED017ABB
:101E100014BFF0EE6A7AF0EE4A7AC0ED047A0360FD
:101E2000BAF1000F0DD1A09B5BB1F4EEE98AF1EE9F
:101E300010FA06DDC0ED068A2368036020601436C0
:101E400056E7F4EEE98AF1EE10FAF5D93C4B384A40
:101E500040F6165180E7029B04330393F6EE00DA56
:101E6000D4ED06AAF4EEEA8AF1EE10FA04D9354B65
:101E7000354A40F612416FE794ED02FA94ED018A7B
:101E8000B5EE40FAF1EE10FA39D1F8EECC7AB4EEB4
:101E9000E78AF1EE10FA23D5B5EEC08AF1EE10FA1A
:101EA00022DBFDEEC87AF0EE491A17EE90BAB0EEDA
:101EB000481AF0EE680AB0EE480A2246594628460B
:101EC000FFF78EFDF0EE491AB0EE481AF0EE680A00
:101ED000B0EE480A22460BF101010298FFF780FD9F
:101EE0002468002CBCD10EE7F0EE491AB0EE481A77
:101EF000F0EE680AB0EE480A22460021EDE794EDC4
:101F000005AA94ED037AB4EECA9AF1EE10FA78EECF
:101F10000F9A1DDA0D4B0C4A40F625411CE700BF15
:101F200000000000AE47813F00007F43588E00084C
:101F300096900008688D0008658E0008849000085F
:101F4000768E00089F8E0008679000088A8E000831
:101F5000F4EECA8AF1EE10FA42BF7AEE687AF0EE39
:101F6000486AEFEE276AB4EEEA9A5CBFF0EE486A80
:101F7000B0EE68AAF1EE10FAC4BF7AEEE87AB0EEDD
:101F8000481AF5EEC06ACEBFAFEE271AF0EE49AAA6
:101F9000B0EE691AF1EE10FA04DBB5EEC01AF1EEFC
:101FA00010FA4ADA4FF0000B1CEE103A5B4597DD51
:101FB00007EE90BA0BF10103B8EEE7AA0FEE903AE4
:101FC0007AEE487AF8EEEFAA87EE8FBA7AEEC87A00
:101FD000B4EECA8AC7EE8FBAF1EE10FA3BEE28BA19
:101FE0007BEEA8BA40F13481F4EEEA9AF1EE10FAF1
:101FF00040F39D81F0EE4B1AB0EE4A1AF0EE680AFB
:10200000B0EE480A224659462846FFF7E9FCF0EEB2
:102010006B1AB0EE6A1AF0EE4B0AB0EE4A0A22468C
:1020200059462846FFF7DCFCF0EE491AB0EE691A73
:10203000F0EE6B0AB0EE6A0AA5E1F8EECC7AF4EEA7
:10204000E76AF1EE10FAADD5B4EEE71AF1EE10FA48
:10205000A8D5FDEEE67A17EE90BAFDEEC17A17EE3E
:10206000902A934531D13AEECAAAD4ED047ABBF155
:10207000000F2AEE27AA03DB1CEE103A5B4504DCB6
:10208000C84BC94A40F6414166E607EE90BAF8EE01
:10209000E70AB0EE4A0A70EEAC0A30EEC11A70EEF2
:1020A000E60AFFF7A5FA05EB8B02D2ED007A039B57
:1020B00077EE807A03EB8B03C2ED007AD3ED007AE2
:1020C00077EE8A7AC3ED007A0AE7F4EEC16AF1EEA0
:1020D00010FA13DD7AEE687A3AEEE8AA79EE67AA8A
:1020E00039EE4AAAF0EE667AB1EE4FFAF0EE416AA6
:1020F000B1EE477AB0EE671AB0EE698AB5EEC07AF3
:10210000F1EE10FA04DAA94BA74A40F6534123E650
:10211000B5EEC0FAF1EE10FA04DAA54BA24A40F689
:10212000544119E6FDEEE67AB0EE686A17EE900AC1
:10213000FDEEC17A411C17EE90BA07EE901AF8EE48
:10214000E75AB0EE680A75EEC87AD4ED049AA7EEA5
:10215000276A820005EB800007EE90BAF8EEE77A76
:10216000B4EE469AF1EE10FA37EEC88A48BFB0EEE8
:10217000496AA7EE080A36EE4A8A75EEE65A28EE54
:10218000298AD0ED006A65EE885AB4EEC09AE5EE71
:10219000AD6AF1EE10FAC0ED006A0BD5ABEB0103AE
:1021A00006EE903A39EE466AF8EEE66AB0EE490A73
:1021B00086EE267A04322A4429EE877A8B450BDC98
:1021C000B0EEC87AB4EEEE7AF1EE10FA12D9794B8D
:1021D000754A40F69441BFE5B0EE486AA7EE2D6A15
:1021E0000131D2ED006A76EE866A38EE078AE2ECBB
:1021F000016AE3E79FED707A30EE477AB4EEEA7A4F
:10220000F1EE10FA04D46D4B674A40F69541A3E510
:1022100077EEAC0A3AEEC00A30EEC11A70EEE70A69
:10222000FFF7E6F9A9EE808A05EB8B02039BD2ED5E
:10223000007A77EE887A03EB8B03C2ED007A93ED98
:10224000007A7AEECA7AA9EEA77A83ED007A47E699
:10225000F4EECA9AF1EE10FA00F19D80B4EECA8A4B
:10226000F1EE10FA0DD5F4EECA9AF1EE10FA10DD87
:10227000F0EE4B1AB0EE4A1AF0EE680AB0EE480AD9
:1022800074E0F4EECA9AF1EE10FA02D5B4EECA8AFE
:10229000EBE7B4EEEA8AF1EE10FAF4EEEA9A0BD527
:1022A000F1EE10FA0EDDF0EE6B1AB0EE6A1AF0EEF7
:1022B000680AB0EE480AB2E6F1EE10FA02D5B4EEC2
:1022C000EA8AEDE7F0EE491AB0EE691AF0EE680A14
:1022D000B0EE480A57E0F1EC017AB4EC017A76EE00
:1022E000A76AF0EE657A36EE877AD7E90203B0EE98
:1022F000C77AE7EE067A00FB0A30FDEEE77A17EEC2
:10230000903AFF2BA8BFFF238354013204E5D3ED9D
:10231000017A93ED027A77EE877AC3ED017A00E5D0
:10232000D9F80040484605F049F9A146B3E4F4EE77
:10233000CA9AF1EE10FA96D5B4EEEA8AF1EE10FAE6
:10234000A7DDF0EE6B1AB0EE6A1AF0EE680AB0EE96
:10235000480A224659462846FFF742FBF0EE4B1A40
:10236000B0EE4A1AF0EE6B0AB0EE6A0A22465946FF
:102370002846FFF735FBF0EE491AB0EE691AF0EE89
:102380004B0AB0EE4A0A594622462846FFF728FB78
:102390001FEE90BA08E6B4EEEA8AF1EE10FA7FF783
:1023A00075AFCEE7AE8E000867900008C08E0008BB
:1023B000C88E0008D08E00080AD7233CE48E00089F
:1023C0002DE9FF4788460021044616461D46FFF7C3
:1023D0000FFAD4E901794F4515DB00231A462AE0AC
:1023E0001E2B39D101212046FFF718FA6368994561
:1023F00009DD2046FEF7FEFD00F00F030F2B02D093
:1024000000110F28F2D1D4F804A0D14504DD2368CF
:1024100013F80A301B2BE3D82046FEF7EBFD0C28FF
:1024200004D12046FEF7E6FD40F480708045D0D10F
:10243000AAEB07033A46214601A8FEF7E6FDDDE9CF
:102440000234A34205DA01A8FFF78EFA022E2860B3
:1024500006D004B0BDE8F0872046FFF785FAD2E742
:10246000029BA342F5DA01A8FFF77EFA6860F0E765
:1024700070B58AB001AD85E80E000023CDE90433C4
:102480000693044605AB022212210EA8FFF798FF1F
:10249000069E0EB1059B33B90023C4E90033A36047
:1024A00020460AB070BD3246294607A8FEF7ADFDAA
:1024B000132104AB0122FFF783FF04990029EBD01D
:1024C00031442846FFF794F929462046FFF714FACD
:1024D000E6E700002DE9F04F2DED028BEBB015463D
:1024E00000F15C020591814607CA0AAB83E8070048
:1024F000059B00930DAE09F144030ECB3046FFF768
:10250000B1F94FF0000801234446C246CDF81080CF
:102510000693D6E901239A4280F26C833046FEF797
:1025200069FD431E83461E2B00F25E83DFE813F035
:1025300033005C03330049005F0085007300F8003E
:102540005C03BE0172028A025C0381025C035C03CD
:102550005C0333001F001F003B00540033001501D3
:102560004801860186015C03EF01C9009700069BC4
:102570002BB1049B04EBD47403EB64030493049B1E
:10258000D91D48BF03F10E01C9103046FFF746F9C7
:1025900000240694BDE7049B04EBD47403EB6403AE
:1025A00004930024B5E7012C40F324836AAB03EBCA
:1025B000840353ED310A13ED320A2846FEF74AFE32
:1025C000E6E7002C40F316836AAB03EB840454ED7A
:1025D000310A9FEDB50AF0E7002C40F30B836AAB9C
:1025E00003EB8404DFEDB00A14ED310AE5E7012CBA
:1025F00040F300830DF1E80B01275B46DBED010A98
:1026000093ED000A28460237FEF74BFEA7420BF176
:10261000080BF2DBC5E7002C40F3EC8200276AAB25
:1026200003EB870353ED300A9FED9F0A28460137DD
:10263000FEF737FEBC42B4DD03E0002C40F3DA8243
:1026400000276AAB03EB8703DFED970A13ED300A2F
:1026500028460137FEF725FEBC42A2DDDFE7032C4A
:1026600040F3C8824FF0000B6AAB03EB8B0313ED12
:10267000300ADFED8D0A6AAB03EB8B0313ED2F1AE3
:102680006AAB03EB8B0353ED2E1AA4EB0B03052B64
:1026900008BF6AAB0BF1040706BF03EB870313ED1A
:1026A000302A9FED812A6AAB03EB8B0353ED2D2A71
:1026B00028460BF1070BFEF714FEA345BFF671AFDA
:1026C00003E0032C40F3968200276AAB03EB8703F9
:1026D00053ED300A9FED740A6AAB03EB870313EDE9
:1026E0002F1A6AAB03EB870353ED2E1A6AAB03EB89
:1026F000870313ED2D2AE31B052B08BF6AAB07F1F7
:10270000040B06BF03EB8B0353ED302ADFED662A83
:1027100028460737FEF7E5FDA742BFF642AFA3E71D
:10272000052C40F367823AAF4FF0050B3B46D7EDDF
:10273000052A97ED042AD7ED031A97ED021AD7ED73
:10274000010A93ED000A28460BF1060BFEF7C9FDBE
:10275000A34507F11807E9DB23E7072C40F34A827A
:10276000A21E3AAF4FF0000B3B46D7ED052A97ED7E
:10277000042AD7ED031A97ED021AD7ED010A93ED5B
:10278000000A07922846FEF7ACFD5B46079A03F164
:102790000B018A4207F118070BF1060BE4DC073343
:1027A000A34280F227826AAA02EB830302EB8B0B1F
:1027B00053ED300A1BED300A2846FEF772FDF0E6B5
:1027C000072C40F31782A31F0DF1E80B0127079395
:1027D0005B46DBED010A93ED000A2846FEF761FD3A
:1027E000079B02379F420BF1080BF0DBA4F10803B3
:1027F0005A0823F00103D91DA14203F1030002F19D
:10280000010280F2F7816AAC0DF5D47C04EB8307FA
:1028100004EB81010CEB80000CEBC20251ED302A7D
:1028200017ED2A2A57ED2B1A17ED2C1A50ED300A06
:1028300012ED300A2846FEF754FDB2E6032C40F3B1
:10284000D98114F001022CD0DDED3A7A9FED167A91
:102850003AA9D31C01EB820720E097ED000A97ED1F
:10286000032A97ED011AD7ED021A0793BBF11B0F4C
:102870000DBFF0EE670AF0EE422AF0EE400AF0EEED
:10288000472A1CBFB0EE670AB0EE472A2846FEF77B
:1028900028FD079B10370433F0EE477A9C42DCDCBE
:1028A0007FE6DFED017AD1E700000000B8F1000F0C
:1028B0002BD1D9F87C3043B309F1740393E80700B6
:1028C00016AF87E8070038464146FEF791FF3846C5
:1028D000FEF790FB002870D138460599FEF79EFF61
:1028E0003846FEF787FB009013AF09F168030ECB63
:1028F0003846FEF7B7FF97E807008DE8070009F1B3
:1029000038030ECB0AA8FFF7B3FD4FF00108002CE7
:1029100040F37081013C6AAB03EB840313ED308A12
:10292000BAF1090FBDEEC88A00F364810AF1010310
:1029300007931CAA0C230DAF03FB0A2397E807009B
:1029400083E80700BBF10A0F14BF09F150020AAA7D
:1029500007CA10AB83E8070010AB93E807000DF13E
:10296000580A8AE8070000215046FEF741FF02217D
:102970005046FEF757FF48F26B43984244DCB0F5EF
:102980009B6F40F26B43B8BF6B2318EE102AD3182D
:102990003DD483423BDA00939AE80E0019A8FEF773
:1029A00061FF199A1B9B3A60BB60002B00F02281EB
:1029B0000023DDF81CA07B60ABE503280CD10221CD
:1029C0003846FEF72FFF022107903846FEF72AFF10
:1029D000079B4345024602DC4FF0FF3083E7384651
:1029E0000992FEF707FB022108903846FEF71AFF0E
:1029F000059B099A934204DB8342089B01DA18463F
:102A000071E708F10108E3E74FF40043BDE7002355
:102A10001A46C8E7BAF1000F40F3EC801CAA0AF18D
:102A2000FF3A0C2303FB0A2393E8070086E807001C
:102A30006FE52846FEF7E8FB01206BB0BDEC028B8A
:102A4000BDE8F08F3046FEF7D5FA2238032800F2B1
:102A5000D180DFE800F002295482062C40F3CA80BE
:102A60009DED3C7A5FED702A9DED3D2A9DED3B1A70
:102A70009DED3A0ADDED3E6A9DED3F6ADDED405A7F
:102A8000F0EE620AF0EE471A2846FEF72AFC5FEDE8
:102A90007A2AB0EE652AF1EE471AB0EE461AF0EE49
:102AA000620AB0EE660AC5E60C2C40F3A3809DEDE9
:102AB000407ADDED416A9DED426ADDED435A9DEDC0
:102AC000445ADDED454ADDED3F2A9DED3E2ADDED20
:102AD0003D1A9DED3C1ADDED3B0A9DED3A0A284674
:102AE000FEF7FFFBF0EE642AB0EE452AF0EE651A21
:102AF000B0EE461AF0EE660AB0EE470A9AE6082CE7
:102B000078DD9DED3B7A9DED3D6A5FED992A9DED67
:102B10003E2A9DED3C1A9DED3A0ADDED416ADDED60
:102B20003F5A9DED405ADDED424AF0EE461AF0EE76
:102B3000470A2846FEF7D5FB77EE062A5FEDA60A80
:102B400072EEA62AB0EE642AF1EE622AF0EE661A60
:102B5000B0EE451AB0EE650A6CE60A2C4ADD9DED32
:102B60003A0ADDED3B0A9DED3C1ADDED3D1A9DED87
:102B70003E2ADDED3F2A9DED406ADDED415A9DED97
:102B8000425ADDED434ADDED446A70EE017A30EEE3
:102B9000A17A77EE827A37EE227A77EE867A37EE6E
:102BA000257A77EE857A37EE247AF0EEE73AB0EEC2
:102BB000C74AF4EEC43AF1EE10FAD6BFB0EE667A28
:102BC000B1EE477AF1EE676A2846FEF78AFBF0EE2F
:102BD000472AB0EE662AF0EE641AB0EE451AF0EE1F
:102BE000650AB0EE460A25E6FF2805D01C2814D059
:102BF0001F2812DC002020E704213046FEF712FED9
:102C000007EE900AFAEEC87A2F2CF3DC6AAB03EBDE
:102C1000840343ED307A01347BE44FF0FF313046DA
:102C2000FEF7FCFD3046FEF79FFE00B207EE900A6D
:102C3000F8EEE77AE8E700BF2DE9F04F00230D46F4
:102C4000904699B00446C0E90E330364C0E901120E
:102C5000A14A41462846FEF726FAA04A4146824646
:102C60002846FEF720FA9E4A20614146064628463D
:102C7000FEF719FA9B4A6061414681462846FEF7F5
:102C800012FA994AA061059041462846FEF70BFAD0
:102C9000964AE061414683462846FEF704FA944A84
:102CA0002062414607462846FEF7FDF9914A6062D8
:102CB00041462846FEF7F7F9059BA062BAF1000FDE
:102CC00003D1002019B0BDE8F08FB9F1000FF8D0A2
:102CD000BBF1000FF5D0002FF3D0002B35D0002E24
:102CE000EFD0854A41462846FEF7DDF9002800F07E
:102CF000D68004302B182A5C5B7803EB02239BB24E
:102D0000E3604FF0FF33E3620AF10203EA18EB5C81
:102D1000527802EB0322002392B2236305EB0A03ED
:102D200003EBC202934240F0BD80236B002BC8D05E
:102D300009F1320905EB090315F809205B7803EB6B
:102D400002239BB263630120BCE702266B4A059312
:102D500041462846CDE90B63CDE90D33FEF7A3F9D3
:102D60000028AED028444FF000522264A06304F142
:102D7000380207CA059B0FAF87E80700C4E91A337A
:102D8000C4E91C33C4E91E3331463846FEF746FD1C
:102D90003846FEF72FF906AE01463846FEF728FD05
:102DA00039463046FEF7A8FD15A83946FEF7A4FDC2
:102DB000059B00930DF1480B15A890E80E005846AE
:102DC000FEF750FD39463046FEF796FD394630464F
:102DD000FEF792FD96E8070004F1500383E8070030
:102DE0000CAB012211215846FFF7EAFA0BAB012286
:102DF0004FF483715846FFF7E3FA0DAB01224FF40D
:102E000092715846FFF7DCFA0EAB012240F2251111
:102E10005846FFF7D5FA9BE807008DE807003046D3
:102E200097E80E00FFF724FB96E8070004F15C0327
:102E300083E807000B9B022B7FF443AF0C9B0593A9
:102E4000002B3FF43EAF0D99D1B1DDF838B0BBF1A6
:102E5000000F3FF436AF3846FEF7CAFC394630461D
:102E6000FEF74AFD96E8070004F1680383E80700CF
:102E7000CBF100535A46394604F17400FEF7C5F809
:102E800005993846FEF7B4FC39463046FEF734FD66
:102E900096E8070004F1440383E8070021E74FF6B2
:102EA000FF732DE71879597901EB002189B203F1FD
:102EB000080651B103290DD19979DB7903EB012380
:102EC0009BB2012B01D00A2B04D13046FEF7B1F89A
:102ED00050442063334625E7F88E0008FD8E000835
:102EE000028F0008078F00080C8F0008118F000860
:102EF000168F00081B8F0008258F0008208F000800
:102F000010B50446FEF798F820B1081E18BF01203E
:102F1000404210BD2378742B1CD16378742B19D1D7
:102F2000A378632B16D1E378662B13D1201DFEF70F
:102F300080F8B0F5803F02D0B0F5003F0AD1A36819
:102F40001BBA994206DA04EB81000C30BDE8104050
:102F5000FEF76FB84FF0FF30DBE770B504462DED9C
:102F6000088B0E46F0EE41AAB0EE618AF0EE42BA4E
:102F7000B0EE62BAB0EE43AA1546112D55D0B0EEB0
:102F8000007AF0EE408AEAEE878AB0EE609AA8EE08
:102F9000079A78EEAB8AF5EE007A39EE0B9A68EE76
:102FA000A78A29EE279A70EE2B7AF6EE009A70EE39
:102FB0008B6AB0EE687A97EEA97AF0EE497AD6EE8F
:102FC000A97A67EEA77AE7EE077AF4EECA7AF1EE0D
:102FD00010FA20DD78EE201A3AEE801A013561EE03
:102FE000A91A21EE291A2A46B0EE4A3AF0EE492AE9
:102FF000B0EE682A31462046FFF7AFFF7AEEABAA63
:1030000038EE0B8A6AEEA9AA28EE298AF0EE490A60
:10301000B0EE680AB1E733682CB104EBC304C4ED29
:1030200000BA84ED01BA01333360BDEC088B70BD8A
:103030002DE9F0474368026B98189C5C477807EBD2
:103040000427BFB20D2F00F20281DFE817F00E0057
:1030500000013B000001420000011D0000010001D1
:10306000000100010001CD00CD0002329C189A5CE5
:10307000637803EB02239BB2063B8B4240F3C08094
:1030800008448079BDE8F087901D1D181C5C6878A5
:1030900000EB042080B28142C0F0B28002F108044B
:1030A0001E191D5D747804EB052410FA84F4A14206
:1030B00080F0A680081A0A3202EB400299189B5C45
:1030C000487877E0644B654A40F2EA51644804F07E
:1030D0004FFAB1F5803F80F2938002F10C001C188A
:1030E000185C647804EB002402F10E07C4F34E046C
:1030F00007EB440418191D5D407800EB052002F130
:10310000080580B203EB050E8842C8BF3C4602F1B9
:103110000A005E5D9EF8015003EB000C05EB0625EE
:103120001E5C9CF8010000EB0620C5F34E0580B242
:10313000023C002842D1951D5E195D5D96F801C0E4
:10314000C7F102060CEB052CCCF34E0C34441032C4
:10315000C4F34F0402EB4C02660002EB440403EBA1
:10316000040813F804E098F8014004EB0E24A4B21C
:103170008C424FEA4C0585DC374403EB070813F813
:1031800007E098F8017007EB0E27BFB28F42FFF6F9
:1031900079AF02EB8C003718DA1913F807C05278B0
:1031A00002EB0C2292B2D2B9421B324498189B5CBB
:1031B0004078084400EB032080B263E76D0804EB1D
:1031C000450C03EB0C0613F80CE0767806EB0E26A4
:1031D000B6B2013880B28E42B8BF6446A9E70C1B74
:1031E0003A4402EB440269E702F10C001844FDF78F
:1031F00020FF4FF0000904464FF00C0AA14501DB07
:1032000000203FE7A4EB090509EB65050AFB05264D
:1032100006F110001844FDF70CFF8142804614D3DC
:1032200006F114001844FDF704FF814202D905F1AC
:103230000109E3E718369819FDF7FBFE0C2F7FF420
:1032400021AFA1EB080840441CE72C46D6E7024B0F
:10325000024A40F2316139E79E8D00084F91000823
:10326000688D00082DE9F047D0F840908CB0DDE97A
:10327000148704468A4616461D46B9F1000F2CD025
:103280002C22002101A804F08DFC01236A4651463E
:1032900020460093FFF71EF916B1A8B1069B3360D4
:1032A00015B198B1089B2B60B8F1000F03D078B12D
:1032B000079BC8F800300FB160B938604FF00109C2
:1032C00048460CB0BDE8F0870346E8E70346EAE766
:1032D0000346EEE7099B3B60F0E7FEF747F9011E66
:1032E000EEDB46B162688B1CD018D25C437803EBEE
:1032F00002231BB2336045B162680B1DD018D25C4B
:10330000437803EB02231BB22B60B8F1000F09D006
:1033100062688B1DD018D25C437803EB02231BB28A
:10332000C8F80030002FC9D06368083158185A5CBB
:10333000437803EB02231BB2CDE700002DE9F04FE9
:103340002DED0A8B056CABB007460E460C92002D96
:1033500040F0EE824468FEF709F90C9B00281D60DE
:10336000C0F24B822318225C5E7806EB02261FFA1D
:1033700086F836B2002E40F34F8100F10A03E318BD
:10338000069300EB48004FEA48030D9300F10A034F
:10339000E118E25C4B78069903EB02230C3010FA3B
:1033A00083F31C440D9B069A023B1A44CB5C507875
:1033B00000EB032083B208930D9B13FA80F00E23D9
:1033C00000FB033004F0F2F88246002800F015827A
:1033D0001C2101FB080108462A462B46002B40F021
:1033E000A080227812F0080316BF637801340234FB
:1033F000089F0273AF4205F1010600F10E0000F3D1
:103400008E80002308461A46057BAF0705F010069C
:1034100040F18C8014F8015B06B96D422B44089E84
:1034200020F80E3B964202F101057DDC00231A468E
:10343000087B460700F0200540F1858014F8010B59
:1034400005B940420344089D4B80954202F10100BA
:1034500001F10E0175DC0024CDE90A44CDE90E44EA
:10346000A346A146204622462146119427460D9B9D
:1034700003EB07080E2303FB08F80AEB08033AF9ED
:10348000085093F80CC0B3F90260119B9F420CF0F6
:10349000010310936BD16FB10B9B03930A9BCDE992
:1034A00001030F9B0093CDE9049B0E9B5046FDF753
:1034B00020FE0146109B83F001030E93109B7BB905
:1034C00008F10E080AEB08003AF90830B0F90220BA
:1034D000007BC00744D5CDE90A56013716461D4684
:1034E0000E2303FB01F20AEB0203012018732AF8F2
:1034F00002504FF000029A80DA805E80069B069AA6
:103500000F9503EB440312F814205B7803EB0223BE
:103510009BB20344044411933046002246E03546F2
:103520005CE7013BDBB263E72A466DE7002E7FF4E0
:1035300076AF2678657805EB062503FA85F3023425
:103540006DE7024674E7002D7FF47DAF2578607843
:1035500000EB052003FA80F3023474E71F4686E788
:103560002B443244CDE90A5656105D10B8E7109B43
:10357000ABBB002A4CD00E2303FB01FE0AEB0E036B
:103580004FF0030C83F80CC005EB090C4FEA6C0CF0
:103590002AF80EC006EB0B0C4FEA6C0CA3F8049053
:1035A000A3F806B0A3F802C0B346A9460131089DAE
:1035B000BD4207F10103D1DC0B9B03930A9BCDE9CC
:1035C00001030F9B0093CDE9049B0E9B5046FDF732
:1035D00090FD06460C9B3546C3F800A00DE19AB15C
:1035E0000FFA89F20FFA8BFC4FF003080E2303FB4E
:1035F00001FE0AEB0E0383F80C802AF80E505E8061
:103600009A80A3F806C088E74FF002089446EDE7D9
:10361000B346A9460122CAE700F07E810A309FED39
:10362000BFBADFEDBFAA04442E46AA460023627843
:103630001E93237894F802B094F8038002EB0322DF
:1036400093071FFA82F940F1E88019F0010F94F90D
:10365000041094F9052000F0D680D2B202EB0122CA
:1036600012B207EE902AA179E27902EB012212B29E
:10367000F8EEE7BA07EE902AB8EEE79A083419F0A8
:10368000080F00F0D1802178627802EB012213B29A
:1036900008EE103AB8EEC88A023428EE2A8AF0EE14
:1036A000488AB0EE4BAAF0EE4B9A69EEA97AE8EEA2
:1036B000087A17EE900AFCF787FF41EC100B05F033
:1036C00045F968EEA87A8DED060BEAEE0A7A17EE58
:1036D000900AFCF779FF41EC100B05F037F908EB85
:1036E0000B211EAA89B238468DED080BFFF726FE86
:1036F000031E40F30C81DDE906010A93FDF794FAFD
:103700000CEE100ADDE90801FDF78EFA0A9BDDF8E0
:1037100078804FF00E0B0BFB03F106EE900A089138
:1037200042464144B2F9000006EE100AB2F9020026
:1037300007EE900AF8EEE77AB8EEC66A2AEE277A24
:1037400068EEA77AA8EE067A0E32E9EE867A37EEB0
:103750002B7A77EE897A27EE0C7A67EEA67ABDEEA1
:10376000C77AFDEEE77A17EE100A22F80E0C17EE74
:10377000900A22F80C0C32F90A0C06EE100A32F903
:10378000080C07EE900AF8EEE77AB8EEC66A2AEE61
:10379000277A68EEA77AA8EE067AE9EE867A3BEEFB
:1037A000877A79EE277A27EE0C7A67EEA67ABDEE55
:1037B000C77AFDEEE77A17EE100A22F80A0C17EE28
:1037C000900A22F8080C9142ACD133440693069A31
:1037D0000E2303FB02F003F0E9FE0E2383460028CC
:1037E00077D1BAF1000F02D0504603F0E7FEB8F1EE
:1037F000000F02D0404603F0E1FE28462BB0BDEC9E
:103800000A8BBDE8F08F07EE901AF8EEE7BA07EEE4
:10381000902A0634B8EEE79A31E7424B424A40F22A
:103820002E71424803F0A4FE19F0400F17D0217802
:10383000627802EB012213B2A178E27802EB012256
:1038400008EE103A13B208EE903AB8EEC88AF8EED5
:10385000E88A28EE2A8A68EEAA8A043421E719F059
:10386000800F2DD02178627802EB012213B2A1786B
:10387000E27802EB012208EE103A217913B2627964
:1038800002EB012209EE903AA17913B2E27902EB40
:1038900001220AEE103A13B208EE903AB8EEC88A46
:1038A000F8EEE99AB8EECAAAF8EEE88A28EE2A8A73
:1038B00069EEAA9A2AEE2AAA68EEAA8A0834F4E6E1
:1038C000F7EE008AB0EE4BAAF0EE4B9AB0EE688AA3
:1038D000EBE6002E06FB03F308DDBAF1000F05D07E
:1038E0001A4651460A9304F0E8F90A9B089A4146A1
:1038F0000BEB030004F0E1F9BAF1000F02D05046DF
:1039000003F05CFE404603F059FE069EDA4619F0CD
:10391000200F7FF48BAE5DE6B2465BE60000000050
:10392000000080389E8D0008CB900008688D00084C
:103930002C22002113A804F035F9012330220021A4
:103940001EA8129304F02EF912AA31463846FEF74B
:10395000C1FDB0B11D9C0E20604303F027FE0C9BFF
:10396000289018601EAA31463846FEF7B3FD40B1D4
:10397000299DAC423FF441AF044B054A40F6E601B5
:103980004FE70C9B00251D6037E700BF2A8F00081A
:10399000B4900008F0B5C469456822342F192E5D33
:1039A0007C7804EB0624A4B28C4217DD4AB1046A89
:1039B00004EB81042F192E5D7C7804EB062424B2DD
:1039C000146053B1026A8900023111446A18695CBB
:1039D000527802EB012212B21A60F0BD62B1066A9F
:1039E000671E06EB870605EB060CAF5D9CF80160D1
:1039F00006EB072636B21660002BEED0026A091BD2
:103A000002EB840202EB4101E0E72DE9F04F836A0B
:103A100085B01746002B00F055814068C218C05C85
:103A2000537803EB00239BB2012B40F0BC809078CD
:103A3000D37803EB00239BB2002B40F0B480137AC1
:103A4000567A06EB0326B3B212FA86F6D25C737886
:103A500003EB02239BB206EB4303B4460193019BA5
:103A6000634500F0A0809CF802309CF8035005EB01
:103A70000325ABB216FA85F5F25C6B7803EB0223F3
:103A80009BB2022B0BD12A796B7903EB02239BB2F9
:103A900005EB4303AE460293029B734502D10CF142
:103AA000020CDCE79EF806309EF8074004EB032486
:103AB000A3B215FA84F40393A278E37803EB02230C
:103AC0009AB214FA83F3A05C5A7802EB002292B205
:103AD000012A04D0022A26D00EF1020EDCE79A78E1
:103AE000D87800EB022080B201384FF00009814500
:103AF000F2DC09EB00084FEA680228F0010808F13F
:103B0000040803EB080A13F808809AF801A00AEBEE
:103B1000082A1FFA8AFA514501DA501EE7E744DD08
:103B200002F10109E3E79A78D87800EB022080B22D
:103B300001384FF0000A8245CEDC0AEB00094FEA5B
:103B40006909062202FB09F2043203EB020813F8AA
:103B500002B098F8012002EB0B2292B2914202DAF5
:103B600009F1FF30E7E798F802B098F803A00AEBF4
:103B70000B2A1FFA8AFA514502DD09F1010ADAE738
:103B800098F8040098F8053003EB002311FA83F34A
:103B90009A1A039BE85C637803EB00239BB2012B2A
:103BA00006D0022B52D000234CE0531CF1D193E7F6
:103BB000A379E07994F8048000EB0320637903EBA8
:103BC00008239BB2042B80B2EDD10028EBD1530027
:103BD0000A3304EB0308E35C98F8018008EB032840
:103BE0001FFA88F314FA88F814F8039098F8013053
:103BF00003EB092394F80890647A04EB0924A4B237
:103C000094429BB2CFDD013B98423FF765AFC218AB
:103C100052109400023408EB040918F804A099F833
:103C2000014004EB0A24A4B2A74201DA531EEBE7D9
:103C300001DD501CE8E799F8022099F8033003EB06
:103C400002231BB2184605B0BDE8F08F22796379D4
:103C500003EB02239BB2042BA5D1A279E37903EBFA
:103C600002239DB2002D9ED1A37A94F80B80607A36
:103C700008EB0328237A00EB032014FA80F0FDF709
:103C800063FB1FFA88F80646394604EB0800FDF787
:103C90005BFB227B637B03EB02239BB29E4245D2FC
:103CA000002843DBA37BE27B02EB032292B290422B
:103CB0003CDA40005643103000EB46002318225CEB
:103CC0005B78BCE7446A002CBCD0426822449478FC
:103CD000D07800EB042080B20028B3D0147A507A58
:103CE00000EB042080B20128ACD1907AD47A04EBA6
:103CF0000024A4B2013C47EA01471E464FF00608E3
:103D0000A6429FDC35196D1008FB05F101F1120088
:103D10001044FDF78EF9874201D26C1EF0E701D9FD
:103D20006E1CEDE716315318525CC9E72B4689E744
:103D300070B5044615461E46FFF77AF9334601462C
:103D40002A462046BDE87040FFF724BE70B549B151
:103D5000C469456804342E192D5D747804EB05247C
:103D600024B20C604AB1C169446806316518645CCC
:103D7000697801EB042109B211604BB1C269416855
:103D800008328818895C427802EB012212B21A606C
:103D900070BD30B5C2694168131D0632CD18881850
:103DA000CC5C895C6B78427803EB042302EB012244
:103DB00012B21BB29B1A07EE903AF8EEE77A80EE49
:103DC000270A30BDF0B52DED048B1C4687B00023CB
:103DD000CDE9023305AB019304AB1546009302AA6B
:103DE00003ABDDE91076F0EE409AF0EE608AB0EEBB
:103DF000419AB0EE618AFFF735FA70B905B12860D3
:103E00000CB1002323600FB100233B600EB10023EF
:103E1000336007B0BDEC048BF0BDA5B1DDED027AD7
:103E2000F8EEE77AB0EE497AA7EEA97A17EE100A13
:103E3000FCF7CAFB41EC100B04F006FF51EC100B31
:103E4000FCF7CAFE2860B4B1059B5B4207EE903ACE
:103E5000F8EEE77AB0EE487AA7EEA87A17EE100AE5
:103E6000FCF7B2FB41EC100B04F0EEFE51EC100B32
:103E7000FCF7B2FE206097B1DDED047AF8EEE77A48
:103E8000A7EEA99A19EE100AFCF79EFB41EC100B65
:103E900004F05EFE51EC100BFCF79EFE3860002E25
:103EA000B7D0039B5B4207EE903AF8EEE77AA7EEB5
:103EB000A88A18EE100AFCF787FB41EC100B04F0FF
:103EC00047FE51EC100BFCF787FE3060A1E70000C5
:103ED000DFED021AB0EE611AFFF774BF00000000B8
:103EE00070B52DED048B1E460446B0EE408AF0EE10
:103EF000608AB0EE419AF0EE619A1546FFF798F8A5
:103F0000099B0993089B0893F0EE691AB0EE491AD1
:103F1000F0EE680AB0EE480ABDEC048B0146334669
:103F20002A462046BDE87040FFF74CBFDFED021A7D
:103F3000B0EE611AFFF7D4BF000000002DE9F04F8A
:103F40002DED088B91B0F4EEC10A0893229B0993E2
:103F5000239B0693904600230A46F1EE10FA049143
:103F60000790F0EE40AAF0EE608AB0EE418AF0EEE3
:103F7000619AB0EE42AAD4BFB0EE60BAB0EE41BAD8
:103F80000B939A460C320E21984538DCBAF1000F9B
:103F900000F0AF814FEA8A0003F008FB8346002857
:103FA00000F0A7818AEE8B9A002603963446DFED57
:103FB000CBBA29EE099A0023049D0B93F0EE6B0A0D
:103FC000B0EE6B0A4FF0FF379946C84520DC0B98DE
:103FD000831B4BF82730039B012B00F0B880C000F7
:103FE00003F0E4FA0123039304460028E3D1584682
:103FF00011B0BDEC088BBDE8F04F03F0DFBA01FB58
:1040000003F00133105C012808BF0AF1010ABBE785
:104010002B7B013B032B22D8DFE803F002253D6513
:10402000B5F900200B9B00EE102AB5F90220002FF5
:1040300000EE902AA8BF9E1B03F10102A8BF4BF817
:104040002760B8EEC00AF8EEE00A01370B922CB1F7
:1040500004EBC30282ED000AC2ED010A1E4609F11B
:1040600001090E35B1E7B5F9003000EE103AB5F9A7
:10407000023000EE903A0B9B5A1CB8EEC00AF8EEE4
:10408000E00A0B92002CEAD004EBC30383ED000A94
:10409000C3ED010AE3E7B5F9003006EE103AB5F9D1
:1040A000023005EE903AB5F9063001EE903AB5F9D6
:1040B0000430B8EEC66AF8EEE55A01EE103AF8EEB2
:1040C000E11AB8EEC11A0022B0EE493AF0EE652AC4
:1040D000B0EE462A0BA92046FEF73FFFF0EE650A38
:1040E000B0EE460ABBE7B5F900300AEE903AB5F9F2
:1040F00002300BEE103AB5F90A3002EE903AB5F9FB
:10410000083002EE103AB5F9063001EE903AB5F9F2
:104110000430F8EEEAAAB8EECBBA01EE103AF8EEA7
:10412000E22AB8EEC22AF8EEE11AB8EEC11A00226D
:10413000B0EE494AF0EE4B3AB0EE6A3A0BA920468F
:10414000FDF77EFAF0EE4B0AB0EE6A0A87E7002C24
:1041500000F0CF80069B0BB1B1EE488A00231846D1
:104160009A4527DC4FF0140800FB088003F01EFA84
:104170000546D0B1002084460646E2451FDC3146A4
:104180002846FDF72FF905F114084FF0140A039B98
:104190009E4276DC099B079800933246089B29468D
:1041A000FDF73CFD284603F009FA584603F006FAED
:1041B00020461DE75BF8232001331044D0E75BF86D
:1041C0002C30059304EBC00ECDF810E0184400220B
:1041D000013B0599914202DC0CF1010CCDE70EEB9D
:1041E000C30191ED017A0499D1ED017AB4EE677AB9
:1041F000F1EE10FA33D0069908FB0657B4EEE77AD1
:1042000099B3F1EE10FA38DC19464FF00009134665
:104210000EEBC30393ED007AC7F81090F0EE697AC5
:10422000E8EE877A0EEBC101013693ED017AC7ED16
:10423000007AF0EE4A7AE7EE087A91ED007AC7ED5F
:10424000017AF0EE697AE8EE877A91ED017AC7EDAE
:10425000027AF0EE4A7AE8EE077AC7ED037A049B19
:104260000833049313460132B3E7F1EE10FA04D495
:104270001946DDF818901346CAE74FF001091146B8
:10428000C6E7C446BCE80F000BAF0FC7DCF8003030
:104290003B60D8ED017A039FC14619ED047AF4EE34
:1042A000C77AF1EE10FA1BD5A9F1140EBEE80F0083
:1042B000CC46ACE80F00013FDEF80030CCF800300F
:1042C000A9F11409E9D10DF12C0CBCE80F000AFB8F
:1042D00007570FC7DCF800303B6004E00000000027
:1042E000039B9F42EFD1039B0133039308F1140812
:1042F0004DE711B0BDEC088BBDE8F08F2DE9F04F14
:104300002DED048B8FB0164609AAF0EE408AB0EE70
:10431000608ADDF874A00546B0EE419AF0EE619A2D
:104320000C461F46FFF70AF8F5EE408AF1EE10FA48
:104330008046B5EE408A5ED0F1EE10FA08BFB0EECE
:10434000688A08AB019307AB2146009305AA06AB28
:10435000F0EE691AB0EE491AF0EE480AB0EE680ABB
:104360002846FFF72FFDDDF814B0079CDDF8189004
:104370000899A4EB0B04A1EB090100220A940B910C
:104380000D9206B1346007B139601C9B0BB1C3F8C4
:1043900000B0BAF1000F01D0CAF80090099EE4B154
:1043A000D9B101FB04F003F001F90D90A8B12A681E
:1043B00002920122CDE900929FED120A0C945B4615
:1043C000B0EE692AF0EE491AB0EE481AF0EE680A2B
:1043D000424631460AA8FFF7B1FD304603F0EEF839
:1043E0000D9803E0099803F0E9F800200FB0BDEC48
:1043F000048BBDE8F08FF1EE10FAF3D0F0EE488AAE
:104400009FE700BF3333B33E70B52DED048B1E46DE
:104410000446B0EE408AF0EE608AB0EE419AF0EECB
:10442000619A1546FEF704FE099B0993089B0893C1
:10443000F0EE691AB0EE491AF0EE680AB0EE480ADA
:10444000BDEC048B014633462A462046BDE8704049
:10445000FFF754BFDFED021AB0EE611AFFF7D4BFC9
:10446000000000002DE9F04F2DED048B8346ADF5E3
:10447000117D5F48FFF78DFC5D480BAB0AAA09A9C7
:10448000FFF764FCDDED098A5948F8EEE88A0DABC8
:104490000CAA4D21B0EE408A68EE808AFFF748FCF6
:1044A0005846FBF7D5FE9DED0C9A079010ABFDEE3C
:1044B000E88AB8EEC99A11AC00930EAA0FAB4C482B
:1044C0000194F0EE480AB0EE480A4D21FFF72EFDA8
:1044D00029EE089A119B18EE902A0026D318BDEEFB
:1044E000C99A0693B046079BB34206DC06980DF5C1
:1044F000117DBDEC048BBDE8F08F1BF806703C48C5
:1045000015AC14AD39460194009513AB12AAF0EE28
:10451000480AB0EE480AFFF709FD129A149B139D52
:1045200033489B1A1693159B00245B1B16AAF0EECA
:10453000480AB0EE480A39461793CDE9004417AB54
:10454000FFF788FF2B4BDDF85CA01B8803905BBA5C
:104550009BB20493284B29481B885BBA9BB25146F7
:104560000593FBF750FE169F25483946FBF74BFE97
:1045700018EE903A59191AFA81F39BB2EF2289B2D8
:10458000204602F051FE19EE103AC7EBC7751D44E4
:10459000454418AB03EB4505A146CA4507DC039823
:1045A00003F00CF819EE103A013698449BE718AA6C
:1045B000F023013B059922F8021B13F0FF03F8D109
:1045C000039A22449F420BDC0E484FF47A734FF457
:1045D000F07218A901F062FD09F101093C44DCE721
:1045E00012F8011B11B1049925F813100133E9E702
:1045F0005C0200200000002038020020D9000020CA
:10460000CC000020D00100202DE9F04F2DED028BD1
:10461000ADF53D7D0646674805928B46FFF7B9FB31
:1046200064480FAB0EAA0DA9FFF790FBDDED0D7AE4
:104630006048F8EEE77A11AB67EE807A10AAFDEEDB
:10464000E77A4D21B0EE408A17EE904AFFF770FBF3
:10465000DDED107A0598F8EEE77A15AD67EE887A09
:10466000FDEEE77ACDED037AFBF7F2FD14AB0A908D
:10467000009312AA13AB4F480195F0EE480AB0EE32
:10468000480A4D21FFF752FC159BE31809934A4B4A
:104690001B885BBA9BB20693484B1B885BBA1FFA18
:1046A00083FA1CAA00230133B3F5A07F22F802ABE2
:1046B000F9D1BDF80C305A0092B2B6B20892721E0F
:1046C000002713443D460B930A9BBB4206DC099826
:1046D0000DF53D7DBDEC028BBDE8F08F059B3548A7
:1046E00013F8079019AC0DF1600849460194CDF814
:1046F000008017AB16AAF0EE480AB0EE480AFFF7A2
:1047000015FC169A189B2B489B1A1A93179A199BFB
:1047100000249B1A49461B931AAA1BABF0EE480AC9
:10472000B0EE480ACDE90044FFF794FEDDF86C9046
:104730000B9A09F1FF33804613FA8BF312FA85F2D4
:1047400016FA85F09BB292B21FFA8BF180B202F09A
:104750006BFD1CAB03EB45030793A14523DD1A99C1
:10476000039B5B1A1CAA2B4402EB4303049301FB3B
:10477000048000220CE010F801EB069BBEF1000F54
:1047800008BF53469C46049B23F802CB0132049396
:104790009142F0DCDDE9071209484FF47A7301F029
:1047A0007DFC0134D9E7404602F008FF039B013746
:1047B0001D4489E75C020020000000203802002030
:1047C000D001002038B500212DED028B184615468A
:1047D0001C46FEF795FB214602460948B0EE408A8A
:1047E000FEF72AFA40B1B0EE480ABDEC028B28462B
:1047F000BDE83840FFF736BEBDEC028B38BD00BFC8
:104800005C020020F8B505462DED028B0E461846D9
:10481000002117461C46FEF773FB214602460A4854
:10482000B0EE408AFEF708FA50B1B0EE480ABDEC8F
:10483000028B3A4631462846BDE8F840FFF7E4BE11
:10484000BDEC028BF8BD00BF5C02002010B50C4629
:10485000FFF7D8FF204410BD2DE9F04F2DED028B5E
:1048600005468FB0CDE902230F46FFF792FA07AB5A
:1048700006AA05A92846FFF769FADDED057A344C4A
:10488000DFF8D080B8EEE78AF0EE408A28EE008AA2
:104890004FF00009BDEEC88A2646C346397869B98B
:1048A000029BA6EB0B061E60A4EB0804039B0334DB
:1048B0001C600FB0BDEC028BBDE8F08F2846FEF700
:1048C000B7FB09AB8246014608AA2846FFF762F803
:1048D0000DAB01930CAB00930AAA0BAB5146F0EE63
:1048E000680AB0EE680AFFF7F3FA0A9B4B449B454F
:1048F00018EE102AA8BF9B460B9B13449845A8BFEF
:1049000098460C9B4B449E42B8BF1E460D9B1344D9
:104910009C4217F8012F51462846B8BF1C46FFF7A6
:1049200074F8DDED087AF8EEE77A07EE100A67EE24
:10493000A87AFDEEE77A17EE903AF8EEC77A67EEBE
:10494000A87AFDEEE77A17EE902A13449944A5E77A
:10495000C1BDF0FF3F420F002DE9F04F2DED028B5E
:104960001446ADF5377DCDE90601B0EE408A0AABBD
:1049700009AA21466148DFF884B1FFF76DFF5F485F
:10498000B0EE480AFFF705FA5C480DAB0CAA0BA97C
:10499000FFF7DCF9DDED0B8A594BF8EEE88A1D884C
:1049A00068EE808A4FF42072002116A86DBAFDEEE1
:1049B000E88AB0EE408A4FF0000A03F0F3F8ADF851
:1049C0005850217831B90A980DF5377DBDEC028B2E
:1049D000BDE8F08F5846FEF72BFB11AD01460DF1F7
:1049E000400906460FAB58460EAA13AF0DF1480812
:1049F000FEF7D0FFF0EE480A2B464A460197CDF865
:104A00000080B0EE480A3146FFF762FA109A129B16
:104A10009B1ACDE90095119A1493139B21789B1A48
:104A2000159314AA15ABF0EE480AB0EE480A5846A2
:104A3000FFF710FD069B1199039003EB0A00079BFB
:104A4000DDF85080194418EE903A1944159B0493F0
:104A50001FFA88F56A1E013B13FA81F312FA80F2FD
:104A60009BB292B289B280B26D0002F0DDFB0027EA
:104A7000ABB20593B946049B4B451FDD204BB3F801
:104A800000C0204B1888039B16A9DA19002308E000
:104A900012F8015B002D14BF8646E64621F802EBB2
:104AA00001339845F4DC059A17484FF47A7316A938
:104AB00001F0F4FA09F101094744DCE7039802F038
:104AC0007DFD14F8012F31465846FEF79EFFDDEDBF
:104AD0000E7AF8EEE77A07EE100A67EE887AFDEEB6
:104AE000E77A17EE903AF8EEC77A67EE887AFDEE2D
:104AF000E77A17EE902A13449A4462E75C0200209A
:104B00003802002000000020D0010020F8B5054642
:104B10002DED028B0E461846002117461C46FEF767
:104B2000EFF9214602460A48B0EE408AFEF784F8C3
:104B300050B1B0EE480ABDEC028B3A4631462846E9
:104B4000BDE8F840FFF708BFBDEC028BF8BD00BF21
:104B50005C02002037B50025CDE900550C46FFF773
:104B6000D5FF204403B030BD2DE9F341104C114F67
:104B700094F800C0104D37F81C70B5F800802F80F5
:104B80000027CDE900770E46FFF7C0FF0B492378D9
:104B90000A68A5F800801344DBB21E2B3044237052
:104BA00000D00BB952420A6002B0BDE8F08100BFEC
:104BB0003A02002078910008000000200400002044
:104BC00010B50C4B1B79032B02D9022002F0F0FA2E
:104BD000094B0A4AB3EE090ACB21AA20FFF7BAFF14
:104BE000BDE81040044B064AB3EE090ACB21FA2077
:104BF000FFF7B0BF140000207C7E01085C8F000826
:104C0000608F000870B504202DED028B02F0D0FA01
:104C10000F4B104E1888104D9FED108A02F02CFBA0
:104C2000002422463146284602F0C2FE00210C4BE9
:104C3000B0EE480A2A460846FFF7C4FD0134642056
:104C400000F032FD0A2CECD1BDEC028B70BD00BF30
:104C500038020020648F00083B02002000006643F9
:104C60007C7E010870B502202DED028B254D264E6D
:104C70009FED268A02F09CFA4FF6FF7300242B80EA
:104C8000234B20461C8002F0F7FA1F4921480922D5
:104C900002F08EFE9FED200A204B1E4A2146022084
:104CA000FFF7D4FD18491B482B2202F081FE9FED2F
:104CB0001A0A1A4B174A2146A720FFF7C7FD2B886F
:104CC0000C2224219E2001F005FF2B88114D0C227F
:104CD0004E219E2001F0FEFE22463146284602F07B
:104CE00067FE0E4BB0EE480A2A4696218220FFF757
:104CF000ADFD0134052000F0D7FC642CECD1BDECF7
:104D0000028B70BD00000020678F00080000204269
:104D1000380200203B0200200000AC427C7E0108EB
:104D20002DE9F043834DB9B0C822002106A802F056
:104D300039FF2B79022B02D0002002F039FA002033
:104D400002F09AFA9FED7C0A7C4B7D4A3C210A20B6
:104D5000FFF77CFD02F0DEF80028FBD000204FF6C4
:104D6000FF7402F089FAB3EE090A744B754A764E65
:104D7000DFF8E081714FCB21FA20FFF7EBFE0094C2
:104D8000CA2340F23F12C821EF2001F0C5FEEF23F5
:104D900018460094F122C82101F0BEFE2246782177
:104DA000A02001F0EDFE22461E214FF4917001F08B
:104DB000E7FE2246D2211E2001F0E2FE2246D22149
:104DC000A02001F0DDFE224678211E2001F0D8FE51
:104DD000224678214FF4917001F0D2FE5B4C02F034
:104DE00099F80028FBD00DF10E0103A802F09EF8FF
:104DF0000028F8D0BDF80C30ADF814300220BDF812
:104E00000E30ADF8163000F04FFCBDF814102046FF
:104E1000FBF7F9F9BDF816103046FBF7F4F9142149
:104E200050237322084602F0FFF94FF039094FF47E
:104E30007A73C82206A9404601F030F9B9F1010998
:104E4000F5D11421B3EE040A3B4622460846FFF78B
:104E5000FDFC3B46B3EE040A324632211420FFF734
:104E6000F5FC3B4A05A904A802F04DF92B88BDF8D2
:104E700010209A4288BF03F1FF336A8888BFADF8DB
:104E80001030BDF81230934284BF02F1FF32ADF80A
:104E900010202A794AB9BDF81020C3F1F003C2F5F9
:104EA000A072ADF81020ADF81230BDF810102046F9
:104EB000FBF7A9F9BDF812103046FBF7A4F950230F
:104EC000D7221421782002F0AFF94FF039094FF4BE
:104ED0007A73C82206A9404601F0E0F8B9F1010949
:104EE000F5D1B3EE040A3B46224614217820FFF7A1
:104EF000ADFC3B46B3EE040A324632217820FFF780
:104F0000A5FCBDF81230C82B7FF669AFBDF8103094
:104F1000F02B7FF664AF01F0FDFF04460028FAD1C4
:104F2000FA2000F0C1FB204602F0A6F939B0BDE836
:104F3000F08300BF14000020000020427C7E0108A6
:104F40006C8F0008608F0008CC000020D900002082
:104F500020000020D001002013B9044BFFF776BCDD
:104F6000012B01D1024BF9E7002070477C7E01083C
:104F7000B891000807B564230190012201A90348F4
:104F800001F059FD019803B05DF804FBE800002032
:104F900070B50D4614460E46731B9C4201DC20463C
:104FA00070BD16F8010BFFF7E5FFF5E710B594B0FB
:104FB000102200210AA802F0F5FD1422002103A806
:104FC00002F0F0FD204B002101911A6C42F080525A
:104FD0001A641B6C03F080530193019B1B4B0291DD
:104FE0001A6842F480421A601B6803F480430293FB
:104FF000029B01214FF480330224CDE908134FF4C2
:1050000080030420CDE90E43A823CDE91003072334
:1050100008A81294139300F09FFC08B172B6FEE743
:105020000F23CDE9033405904FF4A0524FF4805381
:10503000052103A8CDE9062300F06AFE08B172B687
:10504000FEE714B010BD00BF003802400070004001
:105050002DE9F0412DED028B8CB000F0F9FAFFF74D
:10506000A5FF142200210DEB020002F09BFD00249D
:10507000884B00941A6B884842F080021A631A6BBE
:1050800002F080020092009A01941A6B42F0010231
:105090001A631A6B02F001020192019A02941A6BD0
:1050A00042F002021A631B6B012203F00203114655
:1050B0000293029B00F042FC7848224641F2040130
:1050C00000F03CFC012275484FF4406100F036FCD2
:1050D0000125714805A9CDE90555CDE9074400F042
:1050E0004FFB6E48079405A9CDE9055400F048FB35
:1050F00041F20403694805A9CDE90535CDE9074426
:1051000000F03EFB4FF44063CDE90535634807945A
:10511000032305A9089300F033FB6148614B8462C7
:105120004FF48276C0E900364FF4007508230A2751
:10513000C0E90244C0E90444C0E90653C0E9084498
:10514000C76200F04FFF804608B172B6FEE7564CCA
:10515000CDE9030001461C2205A802F023FD4FF013
:1051600080400223C4E900034FF6FF73C4E903380B
:1051700020468023C4F80880A36101F00FFA08B12B
:1051800072B6FEE7CDE9030003A9204601F028FB33
:10519000024608B172B6FEE76023CDE905300790FC
:1051A000099005A9204601F055FA08B172B6FEE74C
:1051B000204600F041F93D483D4B036000F062FE9F
:1051C000034608B172B6FEE73A483B4A8561C0E93A
:1051D00000262822C0E90233C0E90433C0E90723CE
:1051E000C0E90933C76200F0FDFE034608B172B69C
:1051F000FEE73248324903614FF4E132C0E9001260
:105200000C22C0E90233C0E90523C36101F0E4FBCD
:1052100008B172B6FEE702F06FF82A4802F058FBB8
:10522000294802F0BDFB294B05AA03F110051868B7
:105230005968144603C40833AB422246F7D11B8891
:10524000234E9FED248A154D2380FFF7DBFCFFF7EB
:1052500009FD022001F0ACFF3088DFF880801E4F8E
:1052600002F00AF83C24B0EE480A43463A463C2194
:105270000A20FFF779FC013CF5D1FFF751FD02F060
:1052800029F92846042100F05EFB05A802F020FB66
:10529000DBE700BF0038024000000240000402408B
:1052A000D001002000300140300100202802002001
:1052B000000806507801002000380040E800002077
:1052C0000010014064910008758F00088A8F000863
:1052D000380200200000AC42848F00087C7E010868
:1052E00072B6FEE782B00C4B002100915A6C42F47A
:1052F00080425A645A6C02F480420092009A0191F2
:105300001A6C42F080521A641B6C03F080530193B4
:10531000019B02B0704700BF003802400268094B91
:105320009A4282B00BD100230193074B5A6B42F093
:1053300040025A635B6B03F040030193019B02B090
:10534000704700BF000806500038024010B5142214
:105350008AB0044600210DEB020002F023FC236812
:10536000254A934223D1254B002101915A6C42F4E6
:1053700080525A645A6C02F480520192019A02914E
:105380001A6B42F001021A631B6B03F001030293D4
:10539000E020029B0223CDE9050303240523CDE988
:1053A0000843174805A900F0EBF90AB010BD154AEB
:1053B0009342FAD1114B1448002103911A6C42F424
:1053C00080421A641A6C02F480420392039A049198
:1053D0001A6B42F002021A631B6B03F00203049380
:1053E000049B4FF4604202230321CDE905230523EA
:1053F000CDE9081305A9D6E7003001400038024086
:105400000000024000380040000402400368B3F18D
:10541000804F82B00BD100230193064B1A6C42F0EF
:1054200001021A641B6C03F001030193019B02B09B
:10543000704700BF0038024010B5044686B0142201
:10544000002101A802F0AEFB2368B3F1804F16D112
:10545000002300930B4B0C481A6B42F001021A63B5
:105460001B6B03F001030093009B4FF400420223E7
:10547000CDE9012301A90123059300F081F906B0CC
:1054800010BD00BF003802400000024010B50446C5
:1054900088B01422002103A802F084FB2268144B78
:1054A0009A4223D103F59433002101915A6C11489B
:1054B00042F010025A645A6C02F010020192019AF2
:1054C00002911A6B42F001021A631B6B03F0010395
:1054D0000293029B4FF4C06202230321CDE9032310
:1054E0000723CDE9061303A900F04AF908B010BD5F
:1054F0000010014000000240FEE7FEE7FEE7FEE785
:10550000FEE770477047704700F0BCB80120704755
:1055100008B502F0A5FB162303604FF0FF3008BD6D
:1055200008B502F09DFB16230360FEE770B50D463B
:1055300014460E46731B9C4201DC204670BDAFF33F
:10554000008006F8010BF5E74FF0FF3070474FF48D
:1055500000534B60002070470120704700207047C7
:105560000B4A116810B5034609B90A491160106861
:1055700009490A4C0344091B8B4206D902F070FB0F
:105580000C2303604FF0FF3010BD1360FCE700BF39
:10559000DC0200204004002000000220000800007F
:1055A000034AD2F8883043F47003C2F88830704759
:1055B00000ED00E0DFF834D0FFF7F2FF0C480D49B2
:1055C0000D4A002302E0D458C4500433C4188C425E
:1055D000F9D30A4A0A4C002301E013600432A242C4
:1055E000FBD302F043FBFFF733FD704700000220BE
:1055F00000000020B000002070050208B00000206C
:105600003C040020FEE7000038B50E4B1A784FF43A
:105610007A73B3FBF2F30C4A05461068B0FBF3F063
:1056200000F09AF8044658B90F2D09D802462946C9
:105630004FF0FF3000F05EF8044B20461D6038BD8F
:105640000120FCE70C0000200800002010000020D2
:1056500008B50B4B1A6842F400721A601A6842F4DB
:1056600080621A601A6842F480721A60032000F0A7
:105670002FF80F20FFF7C8FFFFF734FE002008BD0A
:10568000003C0240034A044B11681B780B44136032
:10569000704700BFE00200200C000020014B18689A
:1056A000704700BFE002002038B50446FFF7F6FF60
:1056B000631C1CBF054B1B78054618BFE418FFF799
:1056C000EDFF431BA342FAD338BD00BF0C000020FE
:1056D0000749CA6822F4E0620302120403F4E0639B
:1056E000120C134343F0BF6343F40033CB607047A5
:1056F00000ED00E0164B30B5DC68C4F30224C4F1C1
:105700000703251D042B28BF0423062D4FF0FF356A
:105710008CBF033C002405FA03F321EA0303A540F0
:1057200022EA0502A340002843EA0203ACBF00F1CD
:105730006040084A4FEA0313B8BF00F00F00DBB225
:10574000AABF00F56140135480F8003330BD00BF9C
:1057500000ED00E014ED00E00138B0F1807F0BD2E5
:105760004FF0E023054A5861F02182F82310002011
:10577000072298611A6170470120704700ED00E030
:105780002DE9F74FDFF8A491664A00230D68012444
:105790009C4004EA0506AC4340F0AF804D68032707
:1057A00005F003044FEA430807FA08FC671E012FBF
:1057B0006FEA0C0C34D8876807EA0C0ECF6807FA3A
:1057C00008F747EA0E078760476827EA060EC5F321
:1057D00000179F4047EA0E074760C76807EA0C0EAC
:1057E0008F6807FA08F747EA0E07022CC76019D13D
:1057F0004FEAD30A00EB8A0A03F0070BDAF82070AD
:105800004FEA8B0B4FF00F0E0EFA0BFE27EA0E0E2F
:105810000F6907FA0BF747EA0E07CAF8207001E094
:10582000032CDAD1076804FA08F407EA0C073C43B2
:1058300015F4403F046060D000240194D9F844403E
:1058400044F48044C9F84440D9F8444023F00307A5
:1058500007F1804704F4804407F59C37019403F076
:10586000030C019CD7F808E04FEA8C0C0F2404FAD3
:105870000CF42EEA040E2C4CA04245D004F58064B2
:10588000A04243D004F58064A04241D004F5806476
:10589000A0423FD004F58064A0423DD004F580646E
:1058A000A0423BD004F58064A04239D004F5806466
:1058B000A04214BF0824072404FA0CF444EA0E049E
:1058C000BC609468F74315F4801F0CBF3C40344320
:1058D0009460D46815F4001F0CBF3C403443D4607E
:1058E000546815F4003F0CBF3C40344354601468C6
:1058F000ED0354BF3C40344314600133102B7FF45C
:1059000045AF03B0BDE8F08F0024D5E70124D3E70D
:105910000224D1E70324CFE70424CDE70524CBE715
:105920000624C9E7003C0140000002400038024064
:105930000369194214BF0120002070470AB1816138
:1059400070470904FBE7436901EA030221EA030106
:1059500041EA0241816170472DE9F341044640B3B9
:105960000368DE0710D423689D075BD423681907FA
:1059700000F19D8023685A0700F1BD80A369002BC8
:1059800040F0248100202CE08D4B9A6802F00C023C
:10599000042A07D09A6802F00C02082A0BD15B682F
:1059A000590208D5864B1B689A03DCD56368002B27
:1059B000D9D1012015E06368814DB3F5803F13D143
:1059C0002B6843F480332B60FFF768FE7C4E05465E
:1059D00033689B03C7D4FFF761FE401B6428F7D9E7
:1059E000032002B0BDE8F081B3F5A02F04D12B68ED
:1059F00043F480232B60E3E72A6822F480322A6094
:105A00002A6822F480222A60002BDDD1FFF746FEAF
:105A100006462B689F03A6D5FFF740FE801B64282F
:105A2000F7D9DDE7664B9A6812F00C0F07D09A6839
:105A300002F00C02082A11D15B685D020ED4604AA4
:105A40001368990702D5E368012BB2D11368216965
:105A500023F0F80343EAC103136087E7E268594B78
:105A6000B2B101221A60FFF719FE554D06462B68A8
:105A70009B0707D52B68226923F0F80343EAC2038A
:105A80002B6073E7FFF70AFE801B0228EFD9A7E718
:105A90001A60FFF703FE4A4E054633689F077FF5FD
:105AA00065AFFFF7FBFD401B0228F6D998E7626956
:105AB000444B82B10122C3F8802EFFF7EFFD404E28
:105AC0000546736F9B073FF555AFFFF7E7FD401B9A
:105AD0000228F6D984E7C3F8802EFFF7DFFD384EA1
